:0400000080312E28F5
:100008007E14803120007F08FC008B1A0B1D0F28FE
:100018008431D92480312100111E18282000111E96
:10002800182884316E2480312100911E2128200057
:10003800911E21288331942380312100111F292802
:100048002000111F2928843197247C082000FF00F4
:100058007E10090080313028FD01EE01EF01BE302D
:1000680084000030850008308431D324803120306A
:100078008400013085003D308431D3248031A030A4
:100088008400013085003D308431D3247E10200067
:100098008331292B2100B70023009E169D172100CC
:1000A800370C2300031C1E1203181E161D162100F0
:1000B8008E1723001E131D1321003708031DC628A1
:1000C80023001F12C62800302100BB00F430BA00FC
:1000D8002430C2280030BB007A30BA001230C2285F
:1000E8000030BB003D30BA000930C2280030BB00E8
:1000F8001E30BA008430B9008030C4280030BB00FC
:100108000F30BA004230B9004030C4288D289528F5
:100118009D280030BB000730BA00A130B90020305C
:10012800C4280030BB000330BA00D030B90090308A
:10013800C4280030BB000130BA00E830B9004830AC
:10014800C4280030BB000030BA00F430B9002430B5
:10015800C4280030BB000030BA007A30B900123031
:10016800C4280030BB000030BA007930B90018301C
:10017800C4280030BB000030BA000030B90000309D
:10018800B800D5282100190CB200B20C320C0F3976
:100198008400103004020318BD2884310435003E61
:1001A8008200991FF12824303906F43003193A06E1
:1001B80038043B040319E928123039067A30031948
:1001C8003A0638043B04031DF1280130BB00E8302F
:1001D800BA004830B9000030B800003023001E1AB9
:1001E80004309F1902381E1901382100B200320864
:1001F800B60075292E08B2002F08B3003008B400E5
:100208003108B5000630B235B30DB40DB50D890B04
:1002180007293508A3003408A2003308A1003208D2
:10022800A0003B08A7003A08A6003908A50038082E
:10023800A40082318D2221002008FF3E23009B006C
:10024800080021002E08B2002F08B3003008B400BF
:100258003108B5000430B235B30DB40DB50D890BB6
:100268002F293508A3003408A2003308A10032085A
:10027800A0003B08A7003A08A6003908A5003808DE
:10028800A40082318D2221002008FF3E23009B001C
:10029800080021002E08B2002F08B3003008B4006F
:1002A8003108B5000230B235B30DB40DB50D890B68
:1002B80057293508A3003408A2003308A1003208E2
:1002C800A0003B08A7003A08A6003908A50038088E
:1002D800A40082318D2221002008FF3E23009B00CC
:1002E800080021003608003A0319FE28013A0319CC
:1002F8002529033A031925294D2908002000AA00B9
:100308007A30A0002008A6007908A1007808A0008B
:10031800F80A0319F90A2008840021088500000852
:10032800A2002208AB002B0803192D2A25302B0622
:100338000319AA292B08A0002A088600870120088B
:1003480081000130A0002008AA078829A4017908A3
:10035800A1007808A000F80A0319F90A2008840007
:10036800210885000008AB00003A03192D2A783AC5
:100378000319BF298829260886008701403FA7005E
:10038800413FA8000230A0002008A607AB01AB0A35
:1003980004302B060319EF292B08A000A101A03572
:1003A800A10D3230200784008230213D8500003FB6
:1003B800A200013FA30023082802031DE529220803
:1003C8002702031CEF290130A0002008AB070430E6
:1003D8002B06031DD0292B08A0002008A900FF30F8
:1003E800A0002008A907290A031988292908A000BC
:1003F800A101A035A10D3230200784008230213DB3
:100408008500003FF000013FF1002808F3002708AD
:10041800F20083316023813170080F392000A20077
:100428002208A50025087C3E840082300318013E7E
:1004380085000008A0002008AB002B08A0002A08AF
:1004480086008701200881000130A0002008AA0743
:10045800F3292A0886008701810108000134003445
:10046800103400340034013400341034B1342834EA
:10047800003400340034C23401340034B03404345D
:100488000034003400344B34003400346034093410
:10049800003400342C340134003400340034E134A6
:1004A8000034003480342534003400344F34693447
:1004B8002C34203465347534203473346F347534F7
:1004C80020346F34203467346F346B3475342134FE
:1004D80020344D346534753420346B346934203419
:1004E800E9343A342034253478340D340A3400346D
:1004F80030343134323433343434353436343734B8
:10050800383439346134623463346434653466347D
:10051800003400302100AC000030AB000030AA00ED
:100528000030A90023082204210420040319D72A33
:10053800AD01AD0AA31BAC2A0130A035A10DA20D57
:10054800A30D890BA12A0130A8002808AD079E2A0F
:100558000130A935AA0DAB0DAC0D890BAD2A2308C6
:100568002702031DC12A22082602031DC12A2108C9
:100578002502031DC12A20082402031CCC2A2008B6
:10058800A4022108A53B2208A63B2308A73B29145F
:100598000130A336A20CA10CA00C890BCD2A013086
:1005A800AD02031DAC2A2C08A3002B08A2002A08C0
:1005B800A1002908A000080021009E1B132B9D1FE5
:1005C800E72A0630E82A0430F4000030F500740801
:1005D800F2007208F6001C08F9001B08F8007808F9
:1005E8000139F2007208F7007908F3007808F20080
:1005F800760A002BF336F20C890BFE2A7208F800F3
:100608007308F900770803190E2BF809F909F80A95
:100618000319F90A7908F1007808F00008001C08A5
:10062800FB001B08FA00FB1F242BFA09FB09013009
:10063800FA070030FB3DFA09FB09FA0A0319FB0A1D
:100648007B08F1007A08F000080021000D12200054
:100658000D124E30840082308500003F2100AE002C
:10066800013FAF00023FB000033FB10000308031CE
:100678004E2083312100A3010330BC003C08A400B4
:10068800A501A601A70100308331C12383318B174F
:100698008431CB2483312100BC003C08BD0061308B
:1006A8003D06031D5E2B5630A0000430A1008431A6
:1006B800B524833163004C2BF501F60170087104F1
:1006C80003198F2BF701F70AF11B742B0130F03552
:1006D800F10D890B6B2B0130F4007408F707682BB8
:1006E8000130F535F60D890B752B71087302031D62
:1006F8007F2B70087202031C862B7008F2027108A7
:10070800F33B75140130F136F00C890B872B01305F
:10071800F702031D742B7608F1007508F000080035
:1007280023001908F00020006E08860001308700B9
:10073800700881000130F0007008EF076E0886002D
:10074800013087000D300106031DB32B6E088600AB
:1007580001308700810121001108911208003C3006
:1007680020006F06031DBB2B2100911208000130E9
:10077800F00070082000EE0708002100A900BE0163
:10078800BF010C1423000C1421002408A800A80E93
:100798001E0828068F3928069E001E082906FC39DF
:1007A80029069E00230C031C1E1103181E15250C78
:1007B800031C9E1303189E17260C031C9D13031875
:1007C8009D17A00127088431852421009D101D1440
:0207D800080017
:100800008031B5288031B5288031AD288031AD28C0
:100810008031A52880319D288031952880318D2810
:1008200080318C2880318B2880318A288031822841
:1008300080317A288031742880316E288031672891
:10084000F70077088431A82484317D0886000130C0
:10085000870001080319392C7D08860001308700C4
:1008600001088431C12484310130F6007608FD0787
:10087000252C210011120800F2007208F100710805
:10088000F30073088600013087007008840085013A
:100890000008C03F8908031908000130F100710801
:1008A000F3070130F1007108F007412C8231E0229A
:1008B000843171082000ED007008EC005A30F80017
:1008C0008230F9006D08FB006C08FA002C30813191
:1008D000822184312C308431202408007D08860058
:1008E0000130870001080319812C7D088600013042
:1008F0008700010823009A000130F0007008FD070E
:10090000080021001108111208002100A20022088D
:10091000A100A10DA10D1D082106833921069D000E
:100920000F309F0420080319080000000800200071
:10093000111321003E083F040319A62C3F088A002A
:100940003E080A0084312100BE01BF0111130800D6
:10095000F5007508F4007408F000203084313C2460
:100960002030F4007408FD00080021002108BF00B9
:100970002008BE000B1720001113210011179D1431
:100980000800F0002000111AC72C0000C22C7008CB
:1009900023009A0008002000911AD02C0000CB2CD4
:1009A000230019080800640080010131890BD42C50
:0609B00000340B110800E9
:020000040001F9
:02000E00E4FF0D
:00000001FF
