:0400000080312528FE
:100008007E14803120007F08F1008B1A0B1D0F2809
:1000180083316E2380312100111E18282000111E03
:1000280018288231912280312100911E2028200039
:10003800911E20288231252271082000FF007E10A1
:10004800090080312728F0308400213085000030F5
:10005800FE000230FF0083315623FA01FB01B7018D
:10006800B801B901BA01BB01BC01BD01BE017E10D6
:100078002000813173292000AF0023009E169D17B0
:1000880020002F0C2300031C1E1203181E161D1619
:1000980021008E1723001E131D1320002F08031D97
:1000A800B72823001F12B72800302000B300F4300F
:1000B800B2002430B3280030B3007A30B2001230D6
:1000C800B3280030B3003D30B2000930B328003007
:1000D800B3001E30B2008430B1008030B528003043
:1000E800B3000F30B2004230B1004030B5287E284E
:1000F80086288E280030B3000730B200A130B10046
:100108002030B5280030B3000330B200D030B10041
:100118009030B5280030B3000130B200E830B100AB
:100128004830B5280030B3000030B200F430B100D8
:100138002430B5280030B3000030B2007A30B10066
:100148001230B5280030B3000030B2007930B10069
:100158001830B5280030B3000030B2000030B100CC
:100168000030B000C7282100190C2000AA00AA0CF2
:100178002A0C0F398400103004020318AE2882318B
:100188000435B43E82002100991FE5282430200060
:100198003106F43003193206300433040319DD281C
:1001A800123031067A300319320630043304031D45
:1001B800E5280130B300E830B2004830B100003023
:1001C800B000003023001E1A04309F1902381E198F
:1001D80001382000AA002A08AE0066292608AA00CD
:1001E8002708AB002808AC002908AD000630AA355E
:1001F800AB0DAC0DAD0D890BFB282D08F5002C08B7
:10020800F4002B08F3002A08F2003308F90032083A
:10021800F8003108F7003008F6008131D221720861
:10022800FF3E23009B00080020002608AA0027089C
:10023800AB002808AC002908AD000430AA35AB0D86
:10024800AC0DAD0D890B22292D08F5002C08F40002
:100258002B08F3002A08F2003308F9003208F800E6
:100268003108F7003008F6008131D2217208FF3ECC
:1002780023009B00080020002608AA002708AB00DE
:100288002808AC002908AD000230AA35AB0DAC0D2A
:10029800AD0D890B49292D08F5002C08F4002B0811
:1002A800F3002A08F2003308F9003208F800310890
:1002B800F7003008F6008131D2217208FF3E230092
:1002C8009B00080020002E08003A0319F228013A82
:1002D80003191829033A031918293F29080021008E
:1002E8000D1220000D12F201F20A0730B400340892
:1002F800F3008D30F4000330F50000308231F32232
:1003080081317030840082308500003F2000A600D3
:10031800013FA700023FA800033FA9000030803139
:100328003F2081318B1786302000A0008230A10049
:100338008231D42281317C302000A0008230A1009B
:100348008231D422813188302000A0008230A1007F
:100358008231D42281312000BD018930F20003307E
:10036800F30083314823813120003D080319B8295F
:1003780083318423813173082000B6007208B500E8
:100388003608A1003508A0006230A2000330A3009F
:100398008331292381312000BD01B8290030200094
:1003A800A4000030A3000030A2000030A1007508AE
:1003B80074047304720403191C2AA501A50AF51B09
:1003C800F1290130F235F30DF40DF50D890BE6290D
:1003D8000130A0002008A507E3290130A135A20DAE
:1003E800A30DA40D890BF22975087902031D062AAD
:1003F80074087802031D062A73087702031D062A6B
:1004080072087602031C112A7208F6027308F73B79
:100418007408F83B7508F93B21140130F536F40CE3
:10042800F30CF20C890B122A0130A502031DF129E5
:100438002408F5002308F4002208F3002108F2003C
:1004480008002000390886003A08870023001908A8
:1004580081000130F00070082000BE0739088600CE
:100468003A0887000D300106031D4F2A3908860017
:100478003A08870081012100911E4C2A2000370884
:10048800380403194C2A38088A0037080A008231D0
:1004980021009112080020003E0A031D562A21005F
:1004A8009112080001302000B9070030BA3D080059
:1004B800B1342834003400340034C23401340034F8
:1004C800B03404340034003400344B340034003485
:1004D80060340934003400342C34013400340034DE
:1004E8000034E134003400348034253400340034DE
:1004F800543465347334743465347A3469346E34FE
:1005080068346F340D34003446346F346F3420341B
:100518006234613472340D3400347A0886007B0802
:10052800870001080319A42A7A0886007B08870037
:10053800010823009A000130FA070030FB3D08004B
:100548002100111EB12A20003B083C040319B12ADE
:100558003C088A003B080A00823121001112080079
:100568008031A6288031A62880319E2880319E2897
:100578008031962880318E288031862880317E28E7
:1005880080317D2880317C2880317B288031732818
:1005980080316B288031652880315F288031582868
:1005A80020002108F9002008F8008331392382311E
:1005B8007A0886007B08870001080319F02A7A0860
:1005C80086007B088700010883317A238231013055
:1005D800FA070030FB3DDC2A210011120800F60062
:1005E800760C2100031C9512031895167208031D3A
:1005F800002B21009515022B210095111508730673
:10060800F8397306950075082000C0007408BF000B
:100618000B118B1608007308F7007208F6007608AD
:10062800860077088700740884007508850000082C
:10063800C03F8908031908000130F6070030F73D6C
:100648000130F4070030F53D132B20002108F90094
:100658002008F8008331392320002308BC00220831
:10066800BB000B17210011160800F030F2002130F2
:10067800F3007908F5007808F40083310F23F0308F
:10068800FA002130FB000800F0302000B9002230C9
:10069800BA00BE017308B8007208B7000B17210032
:1006A800911608006400800101310130FE0200301B
:1006B800FF3B7F087E0403190034572B03102200E8
:1006C8000D1E0314031C6B2B20000D1608002000C0
:1006D8000D12080020003F0840040319782B400839
:1006E8008A003F080A0083310B110800F20020003D
:1006F800111A802B00007B2B720823009A00080037
:10070800F030F2002230F30008002000BD01BD0ADD
:0407180008000800CD
:020000040001F9
:02000E00E4FF0D
:00000001FF
