:0400000080312E28F5
:100008007E14803120007F08FC008B1A0B1D0F28FE
:100018008431D92480312100111E18282000111E96
:10002800182884316E2480312100911E2128200057
:10003800911E21288331952380312100111F292801
:100048002000111F2928843197247C082000FF00F4
:100058007E10090080313028FD012000EE01EF01FB
:10006800BE308400003085000A308431D3248031CA
:1000780020308400013085003D308431D324803124
:10008800A0308400013085003D308431D3247E10B7
:10009800200083312A2B2100B70023009E169D17CC
:1000A8002100370C2300031C1E1203181E161D16F0
:1000B80021008E1723001E131D1321003708031D6E
:1000C800C72823001F12C72800302100BB00F430C6
:1000D800BA002430C3280030BB007A30BA0012308E
:1000E800C3280030BB003D30BA000930C3280030B7
:1000F800BB001E30BA008430B9008030C5280030FB
:10010800BB000F30BA004230B9004030C5288E28F5
:1001180096289E280030BB000730BA00A130B900ED
:100128002030C5280030BB000330BA00D030B900F9
:100138009030C5280030BB000130BA00E830B90063
:100148004830C5280030BB000030BA00F430B90090
:100158002430C5280030BB000030BA007A30B9001E
:100168001230C5280030BB000030BA007930B90021
:100178001830C5280030BB000030BA000030B90084
:100188000030B800D6282100190CB200B20C320C8D
:100198000F398400103004020318BE288431043556
:1001A800003E8200991FF22824303906F4300319E2
:1001B8003A0638043B040319EA28123039067A3023
:1001C80003193A0638043B04031DF2280130BB002A
:1001D800E830BA004830B9000030B80000302300D9
:1001E8001E1A04309F1902381E1901382100B20066
:1001F8003208B60076292E08B2002F08B30030085E
:10020800B4003108B5000630B235B30DB40DB50DE4
:10021800890B08293508A3003408A2003308A10077
:100228003208A0003B08A7003A08A6003908A50034
:100238003808A40082318E2221002008FF3E2300C6
:100248009B00080021002E08B2002F08B3003008D8
:10025800B4003108B5000430B235B30DB40DB50D96
:10026800890B30293508A3003408A2003308A100FF
:100278003208A0003B08A7003A08A6003908A500E4
:100288003808A40082318E2221002008FF3E230076
:100298009B00080021002E08B2002F08B300300888
:1002A800B4003108B5000230B235B30DB40DB50D48
:1002B800890B58293508A3003408A2003308A10087
:1002C8003208A0003B08A7003A08A6003908A50094
:1002D8003808A40082318E2221002008FF3E230026
:1002E8009B00080021003608003A0319FF28013A4C
:1002F80003192629033A031926294E290800200044
:10030800AA007A30A0002008A6007908A100780881
:10031800A000F80A0319F90A2008840021088500BA
:100328000008A2002208AB002B0803192E2A25304A
:100338002B060319AB292B08A0002A088600870181
:10034800200881000130A0002008AA078929A401FB
:100358007908A1007808A000F80A0319F90A20080A
:100368008400210885000008AB00003A03192E2AF2
:10037800783A0319C0298929260886008701403F51
:10038800A700413FA8000230A0002008A607AB0143
:10039800AB0A04302B060319F0292B08A000A10191
:1003A800A035A10D3330200784008230213D85001F
:1003B800003FA200013FA30023082802031DE629ED
:1003C80022082702031CF0290130A0002008AB07EF
:1003D80004302B06031DD1292B08A0002008A900F2
:1003E800FF30A0002008A907290A0319892929082C
:1003F800A000A101A035A10D333020078400823070
:10040800213D8500003FF000013FF1002808F3007E
:100418002708F20083316123813170080F392000E9
:10042800A2002208A50025087D3E8400823003181A
:10043800013E85000008A0002008AB002B08A000A2
:100448002A0886008701200881000130A0002008C2
:10045800AA07F4292A0886008701810108000134C7
:100468000034103400340034013400341034B13412
:100478002834003400340034C23401340034B03439
:1004880004340034003400344B3400340034603415
:100498000934003400342C3401340034003400347E
:1004A800E1340034003480342534003400344F34CF
:1004B80069342C34203465347534203473346F3403
:1004C800753420346F34203467346F346B347534AA
:1004D800213420344D346534753420346B34693418
:1004E8002034E9343A342034253478340D340A344D
:1004F80000343034313432343334343435343634EF
:1005080037343834393461346234633464346534AC
:100518006634003400302100AC000030AB000030FD
:10052800AA000030A900230822042104200403198A
:10053800D82AAD01AD0AA31BAD2A0130A035A10D03
:10054800A20DA30D890BA22A0130A8002808AD0727
:100558009F2A0130A935AA0DAB0DAC0D890BAE2A27
:1005680023082702031DC22A22082602031DC22AC5
:1005780021082502031DC22A20082402031CCD2AB3
:100588002008A4022108A53B2208A63B2308A73B74
:1005980029140130A336A20CA10CA00C890BCE2A79
:1005A8000130AD02031DAD2A2C08A3002B08A200C0
:1005B8002A08A1002908A000080021009E1B142B6E
:1005C8009D1FE82A0630E92A0430F4000030F500BF
:1005D8007408F2007208F6001C08F9001B08F800FD
:1005E80078080139F2007208F7007908F3007808F2
:1005F800F200760A012BF336F20C890BFF2A7208F7
:10060800F8007308F900770803190F2BF809F9099E
:10061800F80A0319F90A7908F1007808F0000800C7
:100628001C08FB001B08FA00FB1F252BFA09FB0915
:100638000130FA070030FB3DFA09FB09FA0A0319F1
:10064800FB0A7B08F1007A08F000080021000D126F
:1006580020000D124F30840082308500003F2100B9
:10066800AE00013FAF00023FB000033FB1000030D1
:1006780080314F2083312100A3010330BC003C08A6
:10068800A400A501A601A70100308331C22383314C
:100698008B178431CB2483312100BC003C08BD007A
:1006A80061303D06031D5F2B5630A0000430A100C9
:1006B8008431B524833163004D2BF501F6017008B0
:1006C80071040319902BF701F70AF11B752B013000
:1006D800F035F10D890B6C2B0130F4007408F70725
:1006E800692B0130F535F60D890B762B71087302ED
:1006F800031D802B70087202031C872B7008F202FE
:100708007108F33B75140130F136F00C890B882B16
:100718000130F702031D752B7608F1007508F0000B
:10072800080023001908F00020006E088600013038
:100738008700700881000130F0007008EF076E082C
:100748008600013087000D300106031DB42B6E08AA
:1007580086000130870081012100110891120800EC
:100768003C3020006F06031DBC2B210091120800AD
:100778000130F00070082000EE0708002100A900F1
:10078800BE01BF010C1423000C1421002408A8008A
:10079800A80E1E0828068F3928069E001E0829065E
:1007A800FC3929069E00230C031C1E1103181E1574
:1007B800250C031C9E1303189E17260C031C9D135F
:1007C80003189D17A00127088431852421009D1056
:0407D8001D140800E4
:100800008031B6288031B6288031AE288031AE28BC
:100810008031A62880319E288031962880318E280C
:1008200080318D2880318C2880318B28803183283D
:1008300080317B288031752880316F28803168288D
:10084000F70077088431A82484317D0886000130C0
:10085000870001080319392C7D08860001308700C4
:1008600001088431C12484310130F6007608FD0787
:10087000252C210011120800F2007208F100710805
:10088000F30073088600013087007008840085013A
:100890000008C03F8908031908000130F100710801
:1008A000F3070130F1007108F007412C8231E12299
:1008B000843171082000ED007008EC005B30F80016
:1008C0008230F9006D08FB006C08FA002C30813191
:1008D000832184312C308431202408007D08860057
:1008E0000130870001080319812C7D088600013042
:1008F0008700010823009A000130F0007008FD070E
:10090000080021001108111208002100A20022088D
:10091000A100A10DA10D1D082106833921069D000E
:100920000F309F0420080319080000000800200071
:10093000111321003E083F040319A62C3F088A002A
:100940003E080A0084312100BE01BF0111130800D6
:10095000F5007508F4007408F000203084313C2460
:100960002030F4007408FD00080021002108BF00B9
:100970002008BE000B1720001113210011179D1431
:100980000800F0002000111AC72C0000C22C7008CB
:1009900023009A0008002000911AD02C0000CB2CD4
:1009A000230019080800640080010131890BD42C50
:0609B00000340B110800E9
:020000040001F9
:02000E00E4FF0D
:00000001FF
