:0400000080311C2807
:100008007E14803120007F08F0008B1A0B1D0F280A
:100018008231C32280312100111E17282000111EB1
:1000280017288231862270082000FF007E10090000
:1000380080311E28F0308400223085000030FE0018
:100048000130FF008231AB228031FB01FC01B60197
:10005800B7018231DD22B8007E1020008131B72936
:100068002000AE0023009E169D1720002E0C2300B2
:10007800031C1E1203181E1620002E08031D4628F6
:1000880023001F1223001E13A82800302000B200EE
:10009800F430B1002430A4280030B2007A30B10026
:1000A8001230A4280030B2003D30B1000930A42835
:1000B8000030B2001E30B1008430B0008030A62875
:1000C8000030B2000F30B1004230B0004030A628F6
:1000D8006F2877287F280030B2000730B100A130A0
:1000E800B0002030A6280030B2000330B100D03074
:1000F800B0009030A6280030B2000130B100E830DE
:10010800B0004830A6280030B2000030B100F4300A
:10011800B0002430A6280030B2000030B1007A3098
:10012800B0001230A6280030B2000030B10079309B
:10013800B0001830A6280030B2000030B1000030FE
:10014800B0000030AF00B8282100190C2000A90029
:10015800A90C290C0F3984001030040203189F28B9
:1001680082310435123E82002100991FD62824309E
:1001780020003006F430031931062F043204031925
:10018800CE28123030067A30031931062F04320493
:10019800031DD6280130B200E830B1004830B00065
:1001A8000030AF00003023001E1A04309F190238B7
:1001B8001E1901382000A9002908AD005729250873
:1001C800A9002608AA002708AB002808AC000630BA
:1001D800A935AA0DAB0DAC0D890BEC282C08F40041
:1001E8002B08F3002A08F2002908F1003208F80069
:1001F8003108F7003008F6002F08F5008131642136
:100208007108FF3E23009B00080020002508A90074
:100218002608AA002708AB002808AC000430A93536
:10022800AA0DAB0DAC0D890B13292C08F4002B0873
:10023800F3002A08F2002908F1003208F800310812
:10024800F7003008F6002F08F500813164217108A5
:10025800FF3E23009B00080020002508A90026086F
:10026800AA002708AB002808AC000230A935AA0D5F
:10027800AB0DAC0D890B3A292C08F4002B08F300C0
:100288002A08F2002908F1003208F8003108F700BE
:100298003008F6002F08F500813164217108FF3E0F
:1002A80023009B00080020002D08003A0319E328CA
:1002B800013A03190929033A0319092930290800C1
:1002C80000302000A3000030A2000030A100003060
:1002D800A00074087304720471040319AE29A40100
:1002E800A40AF41B83290130F135F20DF30DF40D46
:1002F800890B78290130F9007908A407752901309C
:10030800A035A10DA20DA30D890B842974087802CC
:10031800031D982973087702031D9829720876022D
:10032800031D982971087502031CA3297108F50299
:100338007208F63B7308F73B7408F83B2014013049
:10034800F436F30CF20CF10C890BA4290130A40249
:10035800031D83292308F4002208F3002108F20072
:100368002008F100080021000D1220000D12F101F3
:10037800F10A0730B3003308F200DE30F300023030
:10038800F4000030823150228131FB30840081300A
:100398008500003F2000A500013FA600023FA700FE
:1003A800033FA80000308031342081318B1707309B
:1003B800F9008230FA008231322281318231B7224B
:1003C80081310000E529B134283400340034003488
:1003D800C23401340034B0340434003400340034FE
:1003E8004B340034003460340934003400342C3485
:1003F8000134003400340034E134003400348034F3
:10040800253400340034543465347334743465341A
:100418007A3469346E3468346F3400348031972804
:100428008031972880318F2880318F288031872824
:1004380080317F288031772880316F2880316E287D
:1004480080316D2880316C288031642880315C28A7
:100458008031562880315028803149287A08F800A0
:100468007908F70082319C2282317B0886007C085B
:100478008700010803194D2A7B0886007C0887003D
:1004880001088231CF2282310130FB070030FC3D68
:10049800392A210011120800F500750C2100031CEF
:1004A8009512031895167108031D5D2A21009515EC
:1004B8005F2A2100951115087206F8397206950011
:1004C80074082000B5007308B4000B118B160800DF
:1004D8007208F6007108F50075088600760887002E
:1004E80073088400740885000008C03F8908031950
:1004F80008000130F5070030F63D0130F307003001
:10050800F43D702A7B0886007C08870001080319DF
:10051800992A7B0886007C088700010823009A0036
:100528000130FB070030FC3D08008231D922080069
:10053800F030F1002230F2007808F4007708F30078
:1005480082316C22F030FB002230FC00080064008D
:10055800800101310130FE020030FF3B7F087E043C
:1005680003190034AC2A031022000D1E0314031CC7
:10057800C02A20000D16080020000D1208002000D7
:10058800340835040319CD2A35088A0034080A00CE
:1005980082310B110800F1002000111AD52A000041
:1005A800D02A710823009A000800210011081112AE
:0605B800080001340800F8
:020000040001F9
:02000E00E4FF0D
:00000001FF
