:100000000C9461000C947E000C947E000C947E0095
:100010000C947E000C947E000C947E000C947E0068
:100020000C947E000C947E000C947E000C942403AF
:100030000C947E000C947E000C947E000C947E0048
:100040000C9465040C947E000C947E000C947E004D
:100050000C947E000C947E000C947E000C947E0028
:100060000C947E000C947E0000000007000201004A
:100070000003040600000000000000000102040864
:100080001020408001020408102001020408102002
:10009000040404040404040402020202020203032E
:1000A00003030303000000002300260029000000D2
:1000B0000000250028002B0000000000240027007D
:1000C0002A0011241FBECFEFD8E0DEBFCDBF11E064
:1000D000A0E0B1E0E8E9FDE002C005900D92AA368B
:1000E000B107D9F711E0AAE6B1E001C01D92A93A23
:1000F000B107E1F70E9433050C94CA060C94000086
:1001000061E08DE00E94CD0381E00E94E6008CE07A
:100110000E94E3008CE291E00C948C0185E591E073
:1001200090936B0180936A0161E00E9483020E94B8
:100130007E0261E08DE00E94060464E670E080E0EB
:1001400090E00E94D20487E591E090936B01809348
:100150006A0161E00E9483020E947E0260E08DE0FD
:100160000E94060464E670E080E090E00C94D20403
:10017000682780E1689F90011124622770E0362F84
:100180002227492F50E0242B352BCB01F4E0959505
:100190008795FA95E1F728273927CB01A3E0880F47
:1001A000991FAA95E1F7822793270895E9E5F1E0E1
:1001B00090E02191821729F09F5F9031D1F780E084
:1001C0000895892F089580930001089580939801E0
:1001D00008951F93CF93DF9390919701992329F06E
:1001E000809194018F5F809394012091960180917A
:1001F0009501921759F0803510F42BE001C02DE1E4
:10020000820F809395019093960103C08C5E80933A
:10021000950120919501203A08F47AC080918F01D0
:1002200090919001969587959093900180938F017E
:1002300030919401353028F098609093900180932C
:100240008F01205A2093950110929401809193017F
:10025000882309F44DC080918E018F5F80938E01B9
:100260008C3008F455C0C0918F01D09190018C2F33
:100270008F730E94D600182FCE01C6E09695879501
:10028000CA95E1F70E94D60090E1199F90011124D0
:10029000822B90916E0191110EC080936F019CEFA3
:1002A000980F9B3140F01092930180916D018F5F08
:1002B00080936D012DC0E0916E0191E09E0F9093AF
:1002C0006E01F0E0E059FE4F808390916E018091C5
:1002D0006F01981750F01092930180916C018F5F1D
:1002E00080936C0181E08093920110928E0110C086
:1002F00080918F019091900188339B4049F481E077
:100300008093930110928E0110926E0110929201CF
:10031000DF91CF911F9108954F925F926F927F92DC
:10032000BF92CF92DF92EF92FF920F931F93CF93E2
:10033000DF93CDB7DEB72E970FB6F894DEBF0FBEB2
:10034000CDBFBC018EE0E7E4F1E0DE011196019043
:100350000D928A95E1F76115710509F49AC080E064
:1003600090E00E94D9059B01AC0160E070E080E85C
:100370009FE30E94400520E030E040E05EE30E9401
:1003800067066B017C018E010D5F1F4FBB24B39488
:10039000F801619171918F0180E090E00E94D90590
:1003A0009B01AC0160E074E284E79BE40E9440059D
:1003B0009B01AC0160E070E080E89FE30E94400593
:1003C0009B01AC01C701B6010E9440050E94A8052F
:1003D0002B013C01F2E04F1A5108610871082DEF22
:1003E00042162FEF52066104710428F0B394E7E03F
:1003F000BE12CECF05C0F6E0BF1609F44AC00CC04D
:10040000623071058105910508F443C061157105DD
:1004100021E082079105E8F5BB20D9F11092800018
:1004200028E020938100209181002B2920938100D6
:10043000709389006093880080916F008260809340
:100440006F0061E0809100010E94CD0360E0809127
:1004500001010E94CD0361E0809102010E94CD0361
:1004600060919801809102012E960FB6F894DEBF3C
:100470000FBECDBFDF91CF911F910F91FF90EF90F5
:10048000DF90CF90BF907F906F905F904F900C94D3
:1004900006042E960FB6F894DEBF0FBECDBFDF91D7
:1004A000CF911F910F91FF90EF90DF90CF90BF9071
:1004B0007F906F905F904F900895CF9310929E0120
:1004C00010929D0110929C0160919801C1E06C27EF
:1004D000809102010E940604C0939B01CF91089570
:1004E00060919801809102010E94060460E0809171
:1004F00000010E94060410929B01089580919B01C7
:100500008111FCCF0895BF92CF92DF92EF92FF92BC
:100510000F931F93CF93DF93F82EE92ED62E8BE106
:10052000861708F486C00E947E02C3E0CD0D6C2FB2
:100530008FEF9FEF0E94B800AC2FB0E044E0B5957C
:10054000A7954A95E1F7A75ABE4F2C9120930B012E
:10055000CF70EC2FF0E0E75AFE4F208120930C0182
:100560000BE011E0BF2CCF2DDE2D0E5F1F4F2C2F87
:100570002B192D15D8F47E01C9906C2D0E94B8005E
:10058000AC2DB0E034E0B595A7953A95E1F7A75AC0
:10059000BE4F2C91D8012C93D701EC91EF70F0E075
:1005A000E75AFE4F2081F8012183DFCF61E06D0D16
:1005B000660F80959095E62FF0E0E55FFE4FDC0139
:1005C00014E0B695A7951A95E1F7AF70BB27A75A27
:1005D000BE4F2C912083E1E0E60FF0E0E55FFE4F97
:1005E000DC01AF70BB27A75ABE4F2C912083E2E0FD
:1005F000E60FF0E0E55FFE4FDC01AB2FBB27A295D5
:10060000AF70A75ABE4F2C912083A3E0A60FB0E095
:10061000A55FBE4FE92FFF27EF70FF27E75AFE4F78
:1006200080818C93645F60939F010E945D0281E0F2
:1006300001C080E0DF91CF911F910F91FF90EF906B
:10064000DF90CF90BF9008951F920F920FB60F9238
:1006500011242F933F934F935F936F937F938F93C7
:100660009F93AF93BF93EF93FF9380919101882362
:1006700021F080919B01882371F180919B01882357
:10068000C9F080919C0191E0980F90939C01811199
:1006900011C0E0919E0180919F01E81718F10E941E
:1006A00070028091990190919A01019690939A011C
:1006B0008093990180919C01883010F010929C01E8
:1006C00080919101882379F180919B0181112BC048
:1006D0000E94E90028C0809101010E943C0480939F
:1006E0009701CBCFF0E0ED5FFE4F608120919D013F
:1006F00081E0820F80939D0181E090E001C0880F2E
:100700002A95EAF76823809100010E9406048091EF
:100710009D01863078F210929D0180919E018F5F3D
:1007200080939E01C7CFFF91EF91BF91AF919F91B1
:100730008F917F916F915F914F913F912F910F908A
:100740000FBE0F901F901895833081F028F48130F0
:1007500099F08230A1F008958630A9F08730B9F081
:100760008430D1F4809180008F7D03C0809180001F
:100770008F7780938000089584B58F7702C084B509
:100780008F7D84BD08958091B0008F7703C08091E4
:10079000B0008F7D8093B0000895CF93DF9390E0F9
:1007A000FC01E458FF4F2491FC01E057FF4F849176
:1007B000882349F190E0880F991FFC01E854FF4F0E
:1007C000A591B49182559F4FFC01C591D4919FB7DB
:1007D000611108C0F8948C91209582238C938881B4
:1007E00082230AC0623051F4F8948C91322F3095F4
:1007F00083238C938881822B888304C0F8948C9106
:10080000822B8C939FBFDF91CF9108950F931F93FD
:10081000CF93DF931F92CDB7DEB7282F30E0F901D9
:10082000E859FF4F8491F901E458FF4F1491F90101
:10083000E057FF4F04910023C9F0882321F069831A
:100840000E94A4036981E02FF0E0EE0FFF1FE25544
:10085000FF4FA591B4919FB7F8948C91611103C09B
:100860001095812301C0812B8C939FBF0F90DF9146
:10087000CF911F910F910895CF93DF93282F30E0F0
:10088000F901E859FF4F8491F901E458FF4FD491E1
:10089000F901E057FF4FC491CC2391F081110E94E0
:1008A000A403EC2FF0E0EE0FFF1FEC55FF4FA591D6
:1008B000B4912C912D2381E090E021F480E002C0DE
:1008C00080E090E0DF91CF9108951F920F920FB6D4
:1008D0000F9211242F933F938F939F93AF93BF93C6
:1008E0008091A1019091A201A091A301B091A401D6
:1008F0003091A00123E0230F2D3720F40196A11D94
:10090000B11D05C026E8230F0296A11DB11D20933D
:10091000A0018093A1019093A201A093A301B093A1
:10092000A4018091A5019091A601A091A701B09189
:10093000A8010196A11DB11D8093A5019093A60168
:10094000A093A701B093A801BF91AF919F918F9100
:100950003F912F910F900FBE0F901F9018953FB7AA
:10096000F8948091A5019091A601A091A701B09162
:10097000A80126B5A89B05C02F3F19F00196A11D1F
:10098000B11D3FBF6627782F892F9A2F620F711DE7
:10099000811D911D42E0660F771F881F991F4A95A0
:1009A000D1F70895CF92DF92EF92FF92CF93DF932A
:1009B0006B017C010E94AF04EB01C114D104E1047E
:1009C000F10479F00E94AF046C1B7D0B683E73400C
:1009D000A0F381E0C81AD108E108F108C851DC4F42
:1009E000ECCFDF91CF91FF90EF90DF90CF90089503
:1009F000789484B5826084BD84B5816084BD85B5FA
:100A0000826085BD85B5816085BDEEE6F0E08081C0
:100A100081608083E1E8F0E01082808182608083E1
:100A2000808181608083E0E8F0E080818160808364
:100A3000E1EBF0E0808184608083E0EBF0E0808196
:100A400081608083EAE7F0E0808184608083808138
:100A500082608083808181608083808180688083E0
:100A60001092C10008950E94F8040E948000C0E026
:100A7000D0E00E948E002097E1F30E940000F9CFA1
:100A80000CD0EBC0E3D040F0DAD030F021F45F3F7F
:100A900019F0CCC0511115C1CFC0F0D098F39923F3
:100AA000C9F35523B1F3951B550BBB27AA27621732
:100AB0007307840738F09F5F5F4F220F331F441F77
:100AC000AA1FA9F333D00E2E3AF0E0E830D09150AF
:100AD0005040E695001CCAF729D0FE2F27D0660F9C
:100AE000771F881FBB1F261737074807AB07B0E8DB
:100AF00009F0BB0B802DBF01FF2793585F4F2AF0F1
:100B00009E3F510568F092C0DCC05F3FECF3983E19
:100B1000DCF3869577956795B795F7959F5FC9F74D
:100B2000880F911D9695879597F90895E1E0660FD6
:100B3000771F881FBB1F621773078407BA0720F04F
:100B4000621B730B840BBA0BEE1F88F7E0950895B8
:100B500004D06894B111B5C0089598D088F09F571B
:100B600090F0B92F9927B751A0F0D1F0660F771FF9
:100B7000881F991F1AF0BA95C9F712C0B13081F0D9
:100B80009FD0B1E008959CC0672F782F8827B85F69
:100B900039F0B93FCCF3869577956795B395D9F73A
:100BA0003EF490958095709561957F4F8F4F9F4F44
:100BB0000895E89409C097FB3EF490958095709550
:100BC00061957F4F8F4F9F4F9923A9F0F92F96E999
:100BD000BB279395F695879577956795B795F1110E
:100BE000F8CFFAF4BB0F11F460FF1BC06F5F7F4FAB
:100BF0008F4F9F4F16C0882311F096E911C07723BD
:100C000021F09EE8872F762F05C0662371F096E8C5
:100C1000862F70E060E02AF09A95660F771F881F94
:100C2000DAF7880F9695879597F9089597F99F6752
:100C300080E870E060E008959FEF80EC0895002464
:100C40000A941616170618060906089500240A9431
:100C500012161306140605060895092E0394000CB7
:100C600011F4882352F0BB0F40F4BF2B11F460FF46
:100C700004C06F5F7F4F8F4F9F4F089557FD90586F
:100C8000440F551F59F05F3F71F04795880F97FB50
:100C9000991F61F09F3F79F087950895121613060A
:100CA0001406551FF2CF4695F1DF08C01616170639
:100CB0001806991FF1CF869571056105089408956E
:100CC000E894BB2766277727CB0197F908950BD0C7
:100CD000C4CFB5DF28F0BADF18F0952309F0A6CF0E
:100CE000ABCF1124EECFCADFA0F3959FD1F3950FC0
:100CF00050E0551F629FF001729FBB27F00DB11DA0
:100D0000639FAA27F00DB11DAA1F649F6627B00D2F
:100D1000A11D661F829F2227B00DA11D621F739F18
:100D2000B00DA11D621F839FA00D611D221F749F26
:100D30003327A00D611D231F849F600D211D822F6D
:100D4000762F6A2F11249F5750408AF0E1F08823B4
:100D50004AF0EE0FFF1FBB1F661F771F881F9150C1
:100D60005040A9F79E3F510570F060CFAACF5F3F7A
:100D7000ECF3983EDCF3869577956795B795F795F4
:100D8000E7959F5FC1F7FE2B880F911D969587957C
:080D900097F90895F894FFCFD4
:100D98000C0B0A2A2A2A2A2A2A382C0000000000CA
:100DA800000000000000000000000000000000003B
:100DB800000000000000000000000000000000002B
:100DC800000000000000000000000000000000001B
:100DD80000000000000000000001000800400000C2
:100DE800010004050D310030000D0E131516191AF7
:0A0DF8001C232526292A2C32340082
:00000001FF
