:100000000C9461000C947E000C947E000C947E0095
:100010000C947E000C947E000C947E000C947E0068
:100020000C947E000C947E000C947E000C94A8022C
:100030000C947E000C947E000C947E000C947E0048
:100040000C94E9030C947E000C947E000C947E00CA
:100050000C947E000C947E000C947E000C947E0028
:100060000C947E000C947E0000000007000201004A
:100070000003040600000000000000000102040864
:100080001020408001020408102001020408102002
:10009000040404040404040402020202020203032E
:1000A00003030303000000002300260029000000D2
:1000B0000000250028002B0000000000240027007D
:1000C0002A0011241FBECFEFD8E0DEBFCDBF11E064
:1000D000A0E0B1E0E0E2FCE002C005900D92A6369F
:1000E000B107D9F711E0A6E6B1E001C01D92A33A2D
:1000F000B107E1F70E946E040C940E060C94000008
:1001000061E08DE00E94510381E00E94F8008BE0E5
:100110000E94F5008CE291E00E949E010C947D0209
:10012000CF93DF93CDB7DEB76F970FB6F894DEBFEE
:100130000FBECDBF8EE18F8FBE01615E7F4FCE01BE
:1001400001960E948702882359F08981813311F436
:1001500061E003C0803321F460E08DE00E948A03F7
:100160006F960FB6F894DEBF0FBECDBFDF91CF9173
:100170000895682780E1689F90011124622770E04C
:10018000362F2227492F50E0242B352BCB01F4E0CA
:1001900095958795FA95E1F728273927CB01A3E0B4
:1001A000880F991FAA95E1F78227932708951F9337
:1001B000CF93DF93162FEC018FEF9FEF115020F0BC
:1001C00069910E94B900FACFDF91CF911F910895F4
:1001D000E5E5F1E090E02191821729F09F5F9031F1
:1001E000D1F780E00895892F089580930101089543
:1001F0008093920108951F93CF93DF939091910183
:10020000992329F080918E018F5F80938E01209138
:10021000900180918F01921759F0803510F42BE0F6
:1002200001C02DE1820F80938F019093900103C054
:100230008C5E80938F0120918F01203A08F47AC060
:100240008091890190918A019695879590938A0172
:100250008093890130918E01353028F09860909319
:100260008A0180938901205A20938F0110928E0178
:1002700080918D01882309F44DC0809188018F5FA2
:10028000809388018C3008F455C0C0918901D091C9
:100290008A018C2F8F730E94E800182FCE01C6E0D0
:1002A00096958795CA95E1F70E94E80090E1199F1D
:1002B00090011124822B9091680191110EC08093BE
:1002C00069019CEF980F9B3140F010928D01809155
:1002D00067018F5F809367012DC0E091680191E015
:1002E0009E0F90936801F0E0E659FE4F8083909155
:1002F000680180916901981750F010928D018091EA
:1003000066018F5F8093660181E080938C0110927B
:10031000880110C08091890190918A0188339B40A7
:1003200049F481E080938D01109288011092680158
:1003300010928C01DF91CF911F9108954F925F929F
:100340006F927F92BF92CF92DF92EF92FF920F93C4
:100350001F93CF93DF93CDB7DEB72E970FB6F894E8
:10036000DEBF0FBECDBFBC018EE0E7E4F1E0DE01F1
:10037000119601900D928A95E1F76115710509F4C6
:100380009AC080E090E00E9414059B01AC0160E0FF
:1003900070E080E89FE30E947B0420E030E040E0D2
:1003A0005EE30E94A2056B017C018E010D5F1F4F71
:1003B000BB24B394F801619171918F0180E090E0CA
:1003C0000E9414059B01AC0160E074E284E79BE4A9
:1003D0000E947B049B01AC0160E070E080E89FE339
:1003E0000E947B049B01AC01C701B6010E947B0403
:1003F0000E94E3042B013C01F2E04F1A510861080E
:1004000071082DEF42162FEF52066104710428F097
:10041000B394E7E0BE12CECF05C0F6E0BF1609F4F4
:100420004AC00CC0623071058105910508F443C0D3
:100430006115710521E082079105E8F5BB20D9F12E
:100440001092800028E020938100209181002B29C8
:1004500020938100709389006093880080916F00E1
:10046000826080936F0061E0809100010E945103DF
:1004700060E0809101010E94510361E080910201DE
:100480000E94510360919201809102012E960FB655
:10049000F894DEBF0FBECDBFDF91CF911F910F91BA
:1004A000FF90EF90DF90CF90BF907F906F905F9024
:1004B0004F900C948A032E960FB6F894DEBF0FBEB1
:1004C000CDBFDF91CF911F910F91FF90EF90DF9003
:1004D000CF90BF907F906F905F904F900895609104
:1004E0009201809102010E948A0360E080910001E4
:1004F0000E948A0310929501089580918B018111C9
:1005000005C081E080938B0110928D010895FB015D
:1005100020918C012223C9F0209168012350308161
:10052000231708F42083408150E06BE671E00E94BD
:10053000050610928C01609168018AE691E00E94A4
:10054000D70021E0883B904F09F020E0822F0895EA
:100550001F920F920FB60F9211242F933F934F9338
:100560005F936F937F938F939F93AF93BF93EF931B
:10057000FF9380918B01882321F08091950188233E
:1005800071F1809195018823C9F08091960191E0E5
:10059000980F90939601811111C0E091980180917C
:1005A0009901E81718F10E946F02809193019091D0
:1005B0009401019690939401809393018091960108
:1005C000883010F01092960180918B01882379F188
:1005D0008091950181112BC00E94FB0028C0809161
:1005E00001010E94C00380939101CBCFF0E0ED5F49
:1005F000FE4F60812091970181E0820F80939701E7
:1006000081E090E001C0880F2A95EAF76823809185
:1006100000010E948A0380919701863078F210923F
:100620009701809198018F5F80939801C7CFFF91C8
:10063000EF91BF91AF919F918F917F916F915F915A
:100640004F913F912F910F900FBE0F901F901895D3
:10065000833081F028F4813099F08230A1F0089540
:100660008630A9F08730B9F08430D1F480918000D1
:100670008F7D03C0809180008F77809380000895E4
:1006800084B58F7702C084B58F7D84BD0895809135
:10069000B0008F7703C08091B0008F7D8093B00051
:1006A0000895CF93DF9390E0FC01E458FF4F24912D
:1006B000FC01E057FF4F8491882349F190E0880FB7
:1006C000991FFC01E854FF4FA591B49182559F4FAB
:1006D000FC01C591D4919FB7611108C0F8948C9129
:1006E000209582238C93888182230AC0623051F442
:1006F000F8948C91322F309583238C938881822BB0
:10070000888304C0F8948C91822B8C939FBFDF91D7
:10071000CF9108950F931F93CF93DF931F92CDB77F
:10072000DEB7282F30E0F901E859FF4F8491F90135
:10073000E458FF4F1491F901E057FF4F0491002353
:10074000C9F0882321F069830E9428036981E02F82
:10075000F0E0EE0FFF1FE255FF4FA591B4919FB758
:10076000F8948C91611103C01095812301C0812BF5
:100770008C939FBF0F90DF91CF911F910F910895A0
:10078000CF93DF93282F30E0F901E859FF4F849190
:10079000F901E458FF4FD491F901E057FF4FC4919C
:1007A000CC2391F081110E942803EC2FF0E0EE0F92
:1007B000FF1FEC55FF4FA591B4912C912D2381E0A3
:1007C00090E021F480E002C080E090E0DF91CF91E2
:1007D00008951F920F920FB60F9211242F933F93FB
:1007E0008F939F93AF93BF9380919B0190919C01B6
:1007F000A0919D01B0919E0130919A0123E0230FB9
:100800002D3720F40196A11DB11D05C026E8230F48
:100810000296A11DB11D20939A0180939B01909394
:100820009C01A0939D01B0939E0180919F019091A6
:10083000A001A091A101B091A2010196A11DB11D3D
:1008400080939F019093A001A093A101B093A20176
:10085000BF91AF919F918F913F912F910F900FBEBC
:100860000F901F901895789484B5826084BD84B5EC
:10087000816084BD85B5826085BD85B5816085BD9B
:10088000EEE6F0E0808181608083E1E8F0E01082B4
:10089000808182608083808181608083E0E8F0E0F5
:1008A000808181608083E1EBF0E0808184608083DF
:1008B000E0EBF0E0808181608083EAE7F0E0808116
:1008C0008460808380818260808380818160808376
:1008D0008081806880831092C10008950E94330453
:1008E0000E948000C0E0D0E00E9490002097E1F3D9
:1008F0000E940000F9CF0CD0EBC0E3D040F0DAD07A
:1009000030F021F45F3F19F0CCC0511115C1CFC0B8
:10091000F0D098F39923C9F35523B1F3951B550BE8
:10092000BB27AA2762177307840738F09F5F5F4FC2
:10093000220F331F441FAA1FA9F333D00E2E3AF003
:10094000E0E830D091505040E695001CCAF729D01D
:10095000FE2F27D0660F771F881FBB1F261737076C
:100960004807AB07B0E809F0BB0B802DBF01FF279C
:1009700093585F4F2AF09E3F510568F092C0DCC04B
:100980005F3FECF3983EDCF3869577956795B795D6
:10099000F7959F5FC9F7880F911D9695879597F9F1
:1009A0000895E1E0660F771F881FBB1F621773076A
:1009B0008407BA0720F0621B730B840BBA0BEE1F7F
:1009C00088F7E095089504D06894B111B5C00895F2
:1009D00098D088F09F5790F0B92F9927B751A0F081
:1009E000D1F0660F771F881F991F1AF0BA95C9F7C3
:1009F00012C0B13081F09FD0B1E008959CC0672F44
:100A0000782F8827B85F39F0B93FCCF38695779572
:100A10006795B395D9F73EF490958095709561955B
:100A20007F4F8F4F9F4F0895E89409C097FB3EF486
:100A300090958095709561957F4F8F4F9F4F99232B
:100A4000A9F0F92F96E9BB279395F69587957795A9
:100A50006795B795F111F8CFFAF4BB0F11F460FF69
:100A60001BC06F5F7F4F8F4F9F4F16C0882311F0C1
:100A700096E911C0772321F09EE8872F762F05C0D5
:100A8000662371F096E8862F70E060E02AF09A9570
:100A9000660F771F881FDAF7880F9695879597F965
:100AA000089597F99F6780E870E060E008959FEFF0
:100AB00080EC089500240A941616170618060906F5
:100AC000089500240A9412161306140605060895C4
:100AD000092E0394000C11F4882352F0BB0F40F44C
:100AE000BF2B11F460FF04C06F5F7F4F8F4F9F4F8C
:100AF000089557FD9058440F551F59F05F3F71F00E
:100B00004795880F97FB991F61F09F3F79F0879574
:100B10000895121613061406551FF2CF4695F1DFFD
:100B200008C0161617061806991FF1CF869571058D
:100B3000610508940895E894BB2766277727CB01C1
:100B400097F908950BD0C4CFB5DF28F0BADF18F0BD
:100B5000952309F0A6CFABCF1124EECFCADFA0F3C7
:100B6000959FD1F3950F50E0551F629FF001729F42
:100B7000BB27F00DB11D639FAA27F00DB11DAA1F61
:100B8000649F6627B00DA11D661F829F2227B00DAE
:100B9000A11D621F739FB00DA11D621F839FA00D39
:100BA000611D221F749F3327A00D611D231F849F89
:100BB000600D211D822F762F6A2F11249F575040E0
:100BC0008AF0E1F088234AF0EE0FFF1FBB1F661F7B
:100BD000771F881F91505040A9F79E3F510570F034
:100BE00060CFAACF5F3FECF3983EDCF38695779514
:100BF0006795B795F795E7959F5FC1F7FE2B880F2F
:100C0000911D9695879597F90895FB01DC0102C027
:100C100001900D9241505040D8F70895F894FFCFBD
:100C20000C0B0A2A2A2A2A2A2A382C000000000043
:100C300000000000000000000000000000000000B4
:100C400000000000000000000000000000000000A4
:100C50000000000000000000000000000000000094
:100C6000000000000000000000010008004000003B
:100C7000010004050D0D0E131516191A1C23252647
:060C8000292A2C32340089
:00000001FF
